S00E0000427574746F6E2E737265639A
S11300000C9466000C9487000C9487000C94870071
S11300100C9487000C9487000C9487000C94870040
S11300200C9487000C9487000C9487000C94870030
S11300300C9487000C9487000C9487000C94870020
S11300400C9487000C9487000C9487000C94870010
S11300500C9487000C9487000C9487000C94870000
S11300600C9487000C946A040C9487000C94870009
S11300700C9487000C9487000C9487000C948700E0
S11300800C9487000C9487000C9487000C948700D0
S11300900C9470050C9487000C9487000C948700D2
S11300A00C9487000C9487000C9487000C948700B0
S11300B00C9487000C9487000C9487000C948700A0
S11300C00C9487000C9487000C94870011241FBEA5
S11300D0CFEFD1E2DEBFCDBF00E00CBF13E0A0E064
S11300E0B2E0E0E6FDE100E00BBF02C007900D9234
S11300F0A031B107D9F715E0A0E1B3E001C01D922A
S1130100A439B107E1F70E94E80C0C94AE0E0C94EC
S113011000008091000290910102089580931203DF
S11301200895809314030895FC01E05FFC4F6583F8
S1130130089580931303089520E030E09091B40370
S1130140982311F021E030E0C90108958091B303B0
S113015090E00895FC01E055FC4F858190E00895FE
S1130160362F20E0280F391FC9010895282F30E0C9
S1130170C90108958070892F90E008950F931F930B
S1130180CF93DF938091F8039091F903892B09F4BD
S1130190BBC0809112038E3F09F4ACC08091000271
S11301A090910102892B29F41092F70386E0809341
S11301B0F6038091F70390E06091F60370E0681B0A
S11301C0790B80559C4F0E943D049091F703980F42
S11301D09093F7038091F603981720F40E94470345
S11301E0019771F07091F703472F50E0DA011197EE
S11301F08A010250104060E0ED01C055DC4F18C088
S11302008091F703882309F072C086E090E074C0FF
S1130210F901E055FC4F80818F3F19F481818F3FB4
S113022061F02017310719F488818F3F31F06F5F37
S1130230262F30E02A173B075CF36623A1F090E0F9
S1130240421B530B08C0E055FC4FDF01A20FB31F44
S11302508C9180839F5FE92FF0E0E417F5079CF30E
S1130260761B7093F7032091F7038091F603281708
S113027030F1909112038091B2039817C1F5609107
S1130280B3036C5F6093F603261790F4822F90E01B
S113029070E0681B790B80559C4F0E943D0490913F
S11302A0F703980F9093F7038091F603981738F0AB
S11302B08091B303A82FB0E020E090E00CC085E06B
S11302C090E090930102809300021EC0E055FC4F21
S11302D08281980F2F5FE22FF0E0AE17BF07B4F7CB
S11302E0A055BC4F909513968C91891719F087E00F
S11302F090E002C081E090E09093010280930002BC
S11303001092F9031092F803DF91CF911F910F918E
S113031008951F938091F8039091F903019709F4CC
S113032060C081E090E09093F9038093F80380919A
S11303301303893940F490911403892F8150863036
S113034028F0933819F084E090E031C08FEF809367
S113035010038093110380911303A82FB0E020E0D1
S113036090E005C0E05FFC4F8281980F2F5FE22F81
S1130370F0E0AE17BF07B4F7A05FBC4F909513969B
S11303809C9380910002909101020697029710F4C9
S11303900E940D03109113031C5F80E193E0612F11
S11303A070E00E941203181759F082E090E09093D5
S11303B00102809300021092F9031092F80311C015
S11303C080911403823029F48091160390E00696FC
S11303D002C086E090E00E9436031092010210925F
S11303E000021F9108950E9489018091000290915A
S11303F00102892B41F40E94BE0080910002909179
S113040001020597C1F30895282F8091F803909174
S1130410F903892B99F42093120383E08093140346
S113042060931503CA0140931603807090931703D9
S113043085E0809313030E94F3010895FFCF282FD2
S11304408091F8039091F903892BB9F42093120356
S113045082E080931403609315038093160384E071
S1130460809313030E94F3013091B60320E080913E
S1130470B503280F311DC9010895FFCF282F80919E
S1130480F8039091F903892B79F42093120383E004
S113049080931403609315034093160384E08093C0
S11304A013030E94F3010895FFCF282F8091F803CE
S11304B09091F903892B99F42093120382E080939D
S11304C014036093150381E08093160384E0809302
S11304D013030E94F3018091B50390E00895FFCFC8
S11304E0282F8091F8039091F903892B59F42093D4
S11304F0120381E08093140382E0809313030E942B
S1130500F3010895FFCF0E940C0308950F931F93E6
S11305108C016F5F7F4F882777FD8095982F0E940D
S1130520410A9B01AC0160E074E284EF99E40E940B
S11305300509AB01BC01C8010E94B302892B19F45F
S113054020E030E00CC081E090E0909301028093C1
S113055000021092F9031092F80321E030E0C9017F
S11305601F910F910895EF92FF920F931F937A01B9
S11305708B0182E48093C00088E98093C10086E007
S11305808093C20060E074E284EF99E4A8019701CB
S11305900E9405090E943506615070407093C500A1
S11305A06093C40060E074E284E799E4A8019701D1
S11305B00E94050920E030E040E451E40E940B0869
S11305C060938205709383058093840590938505D9
S11305D020918205309183054091840550918505D1
S11305E060E070E08AE793E40E9405090E94350602
S11305F070938105609380057298739A8FEF80934E
S1130600C6001092FA041092FB0481E090E01F915E
S11306100F91FF90EF90089508958091FB048093CB
S1130620FA040895AC01F8947398729A20E030E0CB
S113063011C08091C00085FFFCCF8091C000806410
S11306408093C000FA01E20FF31F80818093C600FB
S11306502F5F3F4F2617370764F38091C00086FF52
S1130660FCCF7298739A7894C90108951092890501
S1130670109288052091800530918105265F3F4FB7
S1130680280F391F30938705209386050895AF926C
S1130690BF92CF92DF92EF92FF920F931F938091BC
S11306A08805909189050196909389058093880522
S11306B02091880530918905809186059091870560
S11306C08217930718F421E030E074C0A0908205EB
S11306D0B0908305C0908405D0908505C601B5010E
S11306E02BEA3AEA4AEA50E40E940B087B018C01A7
S11306F020E030E040E85FE30E94110A882314F40C
S113070061E054C0C801B70120E030E04FE753E492
S11307100E94B10918160CF045C0C601B50120E0CD
S113072030E04AE754E40E9405095B016C0120E0D3
S113073030E04AE755E40E940B087B018C0120E07D
S113074030E040E85FE30E94110A88231CF461E072
S113075070E024C0C801B70120E03FEF4FE757E441
S11307600E94B1091816B4F4C601B50120E030E0C6
S113077040E251E40E940B080E94350680E991E0B2
S113078005C0FC013197F1F76150704061157105A6
S1130790C1F70EC0C801B7010E943506CB0101970D
S11307A0F1F706C0C801B7010E9435066A95F1F752
S11307B020E030E0C9011F910F91FF90EF90DF908E
S11307C0CF90BF90AF9008959091FA048091FB046C
S11307D0981719F420E030E017C09091FA04809142
S11307E0FB04981738F48091FB049091FA04282FA5
S11307F030E008C08091FB049091FA04282F30E087
S113080020503F4F291B3109C90108951F93182F08
S11308100E94E4038F3F910591F0E091FB04F0E026
S1130820E650FC4F10838091FB048F3F19F4109223
S1130830FB0405C08091FB048F5F8093FB041F9130
S113084008959091FA048091FB04981711F4EFEF46
S113085012C0E091FA04F0E0E650FC4FE081809190
S1130860FA048F3F19F41092FA0405C08091FA0437
S11308708F5F8093FA048E2F0895EF92FF920F9367
S11308801F93CF93DF937C01EB019091FA04809145
S1130890FB04981719F400E010E014C00E94E4036C
S11308A08C01C817D9070CF48E01C0E0D0E007C052
S11308B00E942104F701EC0FFD1F80832196C017CD
S11308C0D107B4F3C801DF91CF911F910F91FF902D
S11308D0EF9008951F920F920FB60F920BB60F92DE
S11308E011242F933F934F935F936F937F938F9331
S11308F09F93AF93BF93EF93FF938091C6000E94A1
S11309000604FF91EF91BF91AF919F918F917F91D9
S11309106F915F914F913F912F910F900BBE0F906C
S11309200FBE0F901F901895AC0120E030E00CC072
S11309308091C80085FFFCCFFA01E20FF31F80818C
S11309408093CE002F5F3F4F261737078CF308950F
S1130950DC0190917C0580917D05981711F480E06D
S1130960089590917C0580917D05981719F420E0F5
S113097030E017C090917C0580917D05981738F47C
S113098080917D0590917C05282F30E008C08091EE
S11309907D0590917C05282F30E020583F4F291B7E
S11309A03109A901621773070CF4AB0120E030E0B0
S11309B020C090917C0580917D05981711F49FEFDC
S11309C012C0E0917C05F0E0E450FB4F90818091EF
S11309D07C058F3719F410927C0505C080917C0545
S11309E08F5F80937C05FD01E20FF31F90832F5FDF
S11309F03F4F24173507ECF2842F089590917C051E
S1130A0080917D05981719F420E030E017C090918B
S1130A107C0580917D05981738F480917D0590912F
S1130A207C05282F30E008C080917D0590917C05DD
S1130A30282F30E020583F4F291B3109C901089560
S1130A40482F90917C0580917D059817D1F0909165
S1130A507C0580917D05981738F480917D059091EF
S1130A607C05282F30E008C080917D0590917C059D
S1130A70282F30E020583F4F291B31092F373105EB
S1130A8091F0E0917D05F0E0E450FB4F40838091CC
S1130A907D058F3719F410927D05089580917D05A9
S1130AA08F5F80937D05089590917C0580917D05ED
S1130AB0981711F4EFEF12C0E0917C05F0E0E450D8
S1130AC0FB4FE08180917C058F3719F410927C05EF
S1130AD005C080917C058F5F80937C058E2F0895DF
S1130AE01F920F920FB60F920BB60F9211242F93F1
S1130AF03F934F935F936F937F938F939F93AF93A2
S1130B00BF93EF93FF938091CE000E942005FF9145
S1130B10EF91BF91AF919F918F917F916F915F9171
S1130B204F913F912F910F900BBE0F900FBE0F90DE
S1130B301F901895DF93CF930F920F92CDB7DEB726
S1130B40982F8A3099F48DE089839A83FE01319637
S1130B509E012D5F3F4F8091C80085FFFCCF81919E
S1130B608093CE00E217F307B1F706C08091C80066
S1130B7085FFFCCF9093CE0080E090E00F900F9023
S1130B80CF91DF91089590917C0580917D05981710
S1130B90D1F390917C0580917D05981738F480916C
S1130BA07D0590917C05282F30E008C080917D055B
S1130BB090917C05282F30E020583F4F291B3109A4
S1130BC0232B09F390917C0580917D05981711F4EE
S1130BD0EFEF15C0E0917C05F0E0E450FB4FE081BD
S1130BE080917C058F3719F410927C0505C08091A3
S1130BF07C058F5F80937C05ED3009F4EAE08E2F4D
S1130C0090E008950E94410A9B01AC0160E074E207
S1130C1084EF99E40E9405090E94350661507040F2
S1130C2022E42093C80028E92093C90026E02093F9
S1130C30CA002FEF2093CE0010927C0510927D0500
S1130C40272F332727FD3A952093CD006093CC00BE
S1130C507298739A8AE995E063EC75E00E943A0D04
S1130C6090937F0580937E050895EF92FF920F93F2
S1130C701F937B018C0120E030E040E05FE40E94A0
S1130C80E10988238CF0C801B70120E030E040E09E
S1130C905FE40E94AD070E949F0A9B01AC012050B3
S1130CA030404040504806C0C801B7010E949F0A26
S1130CB09B01AC01B901CA011F910F91FF90EF9004
S1130CC00895A0E0B0E0E7E6F6E00C94030DDC0143
S1130CD02B01FA019C91923008F439C1EB0188810F
S1130CE0823008F433C1943069F4843009F02FC1A0
S1130CF011969C9111978981981709F428C1A2E053
S1130D00B2E025C1843009F421C18230A9F49230C3
S1130D1009F01DC19A01AD0188E0EA010990AE0114
S1130D20E90109929E018150C1F7E201898111967E
S1130D309C918923818308C1923009F407C11296DA
S1130D402D903C901397EB018A819B811496AD9072
S1130D50BD90CD90DC901797EC80FD800E811F81B3
S1130D609101281B390BB90137FF04C06627772787
S1130D70621B730B603271050CF061C0121613060E
S1130D806CF537014801062E04C096948794779435
S1130D9067940A94D2F721E030E040E050E004C0C8
S1130DA0220F331F441F551F6A95D2F7215030403C
S1130DB0404050402E213F2140235123211531052D
S1130DC04105510521F021E030E040E050E0790197
S1130DD08A01E628F728082919293CC0232BD1F1D8
S1130DE0260E371E35014601062E04C096948794BC
S1130DF0779467940A94D2F721E030E040E050E021
S1130E0004C0220F331F441F551F6A95D2F7215087
S1130E103040404050402A213B214C215D21211586
S1130E2031054105510521F021E030E040E050E07A
S1130E3059016A01A628B728C828D9280BC08215E9
S1130E4093052CF01C01AA24BB24650103C0EE24E5
S1130E50FF24870111969C91D20111968C919817C9
S1130E6009F445C0992339F0A80197012A193B09CF
S1130E704C095D0906C0A60195012E193F09400BD6
S1130E80510B57FD08C0118233822282248335839B
S1130E90468357831DC081E0818333822282882761
S1130EA09927DC01821B930BA40BB50B84839583D8
S1130EB0A683B7830DC0220F331F441F551F2483FD
S1130EC035834683578382819381019793838283F9
S1130ED02481358146815781DA01C9010197A1092D
S1130EE0B1098F5F9F4FAF4FBF4328F30BC091836E
S1130EF033822282EA0CFB1C0C1D1D1DE482F58248
S1130F000683178383E0808324813581468157815A
S1130F1057FF1AC0C901AA2797FDA095BA2F81705F
S1130F209070A070B0705695479537952795822B91
S1130F30932BA42BB52B84839583A683B7838281BB
S1130F409381019693838283DF0101C0D201CD0195
S1130F50CDB7DEB7E2E10C941F0DA0E2B0E0E3EB05
S1130F60F7E00C940F0D69837A838B839C832D8324
S1130F703E834F835887E9E0EE2EF12CEC0EFD1EE4
S1130F80CE010196B7010E94170C8E010F5E1F4F10
S1130F90CE010596B8010E94170C8A8991E0892731
S1130FA08A8BC701B801AE01475E5F4F0E9461069C
S1130FB00E94420BA096E6E00C942B0DA0E2B0E058
S1130FC0E4EEF7E00C940F0D69837A838B839C83A2
S1130FD02D833E834F835887F9E0EF2EF12CEC0EDE
S1130FE0FD1ECE010196B7010E94170C8E010F5E03
S1130FF01F4FCE010596B8010E94170CC701B80116
S1131000AE01475E5F4F0E9461060E94420BA096AC
S1131010E6E00C942B0DA0E2B0E0E1E1F8E00C94E2
S1131020030D69837A838B839C832D833E834F8353
S11310305887CE010196BE01675F7F4F0E94170C4F
S1131040CE010596BE016F5E7F4F0E94170C9985F5
S1131050923088F089898230C8F0943019F4823053
S113106051F404C0843029F4923081F482E092E097
S1131070C6C0923049F420E09A858A89981321E009
S11310802A87CE010996BBC0823049F420E09A85B4
S11310908A89981321E02A8BCE014196B0C02D8411
S11310A03E844F8458886D887E888F88988CEE247F
S11310B0FF248701AA24BB24650140E050E060E0DE
S11310C070E0E0E0F0E0C10181709070892BE9F0FC
S11310D0E60CF71C081D191D9A01AB012A0D3B1DD6
S11310E04C1D5D1D80E090E0A0E0B0E0E614F70444
S11310F00805190520F481E090E0A0E0B0E0BA0111
S1131100A901480F591F6A1F7B1FAA0CBB1CCC1CCA
S1131110DD1C97FE08C081E090E0A0E0B0E0A82AC2
S1131120B92ACA2ADB2A3196E032F10549F0660C65
S1131130771C881C991C5694479437942794C3CFE2
S1131140FA85EA892B893C898B859C85280F391F70
S11311502E5F3F4F17C0CA0181709070892B61F0D8
S113116016950795F794E79480E090E0A0E0B0E846
S1131170E82AF92A0A2B1B2B7695679557954795EC
S11311802F5F3F4F77FDE7CF0CC0440F551F661FFD
S1131190771F17FD4160EE0CFF1C001F111F21502B
S11311A03040403090E0590790E0690790E47907B7
S11311B060F32B8F3C8FDB01CA018F779070A07096
S11311C0B07080349105A105B10561F447FD0AC0F2
S11311D0E114F1040105110529F0405C5F4F6F4FE4
S11311E07F4F40781A8EFE1711F081E08A8F4D8F61
S11311F05E8F6F8F78A383E0898FCE0149960E941A
S1131200420BA096E2E10C941F0DA8E1B0E0EBE0E4
S1131210F9E00C940B0D69837A838B839C832D8373
S11312203E834F835887B9E0EB2EF12CEC0EFD1E64
S1131230CE010196B7010E94170C8E010F5E1F4F5D
S1131240CE010596B8010E94170C2985223008F4B6
S11312507EC03989323010F4B8017CC08A859A89FD
S113126089278A87243011F0223031F4231709F0BA
S11312706EC062E072E06EC0343039F41D861E86A2
S11312801F86188A1C861B8604C0323021F484E031
S11312908987B7015FC02B853C858B899C89281B76
S11312A0390B3C872B87ED84FE840F851889AD8824
S11312B0BE88CF88D88CEA14FB040C051D0540F4C5
S11312C0EE0CFF1C001F111F215030403C872B8760
S11312D020E030E040E050E080E090E0A0E0B0E4C6
S11312E060E070E0EA14FB040C051D0540F0282BB7
S11312F0392B4A2B5B2BEA18FB080C091D09B69500
S1131300A79597958795EE0CFF1C001F111F6F5F23
S11313107F4F6F31710531F7DA01C9018F77907012
S1131320A070B07080349105A105B10561F427FD6A
S11313300AC0E114F1040105110529F0205C3F4FB6
S11313404F4F5F4F20782D873E874F87588BBE01C4
S1131350675F7F4FCB010E94420B6896EAE00C94D2
S1131360270DA8E1B0E0E7EBF9E00C940F0D6983D9
S11313707A838B839C832D833E834F83588789E0B4
S1131380E82EF12CEC0EFD1ECE010196B7010E9451
S1131390170C8E010F5E1F4FCE010596B8010E94F7
S11313A0170C8985823040F08989823028F0C70182
S11313B0B8010E948F0C01C08FEF6896E6E00C9490
S11313C02B0DA8E1B0E0E7EEF9E00C940F0D698372
S11313D07A838B839C832D833E834F83588789E054
S11313E0E82EF12CEC0EFD1ECE010196B7010E94F1
S11313F0170C8E010F5E1F4FCE010596B8010E9497
S1131400170C8985823040F08989823028F0C70121
S1131410B8010E948F0C01C08FEF6896E6E00C942F
S11314202B0DA8E1B0E0E7E1FAE00C940F0D69831D
S11314307A838B839C832D833E834F83588789E0F3
S1131440E82EF12CEC0EFD1ECE010196B7010E9490
S1131450170C8E010F5E1F4FCE010596B8010E9436
S1131460170C8985823040F08989823028F0C701C1
S1131470B8010E948F0C01C081E06896E6E00C94EC
S11314802B0DA8E0B0E0E7E4FAE00C940C0D9B010E
S1131490AC0183E08983DA01C9018827B7FD83950C
S11314A09927AA27BB27B82E2115310541055105D7
S11314B019F482E089833AC08823A9F0203080E0BF
S11314C0380780E0480780E8580729F460E070E0B6
S11314D080E09FEC30C0EE24FF248701E21AF30A77
S11314E0040B150B02C079018A018EE1C82ED12CA0
S11314F0DC82CB82ED82FE820F831887C801B7019C
S11315000E94F30A01971816190684F4082E04C0E1
S1131510EE0CFF1C001F111F0A94D2F7ED82FE820D
S11315200F831887C81AD90ADC82CB82BA82CE010B
S113153001960E94420B2896E9E00C94280DACE039
S1131540B0E0E5EAFAE00C94130D69837A838B83A7
S11315509C83CE010196BE016B5F7F4F0E94170CE6
S11315608D81823061F1823050F1843021F48E819A
S1131570882351F12EC02F81388537FD20C06E811C
S11315802F3131051CF06623F9F023C08EE190E081
S1131590821B930B29853A854B855C8504C056953F
S11315A04795379527958A95D2F76623B1F05095DC
S11315B04095309521953F4F4F4F5F4F0EC020E02F
S11315C030E040E050E009C02FEF3FEF4FEF5FE71E
S11315D004C020E030E040E050E8B901CA012C9694
S11315E0E2E00C942F0DEF92FF920F931F937B0177
S11315F08C0180E0E81680E0F80681E0080780E0CE
S1131600180788F48FEFE816F1040105110531F08D
S113161028F088E090E0A0E0B0E017C080E090E01F
S1131620A0E0B0E012C080E0E81680E0F80680E0B8
S1131630080781E0180728F088E190E0A0E0B0E016
S113164004C080E190E0A0E0B0E020E230E040E0BF
S113165050E0281B390B4A0B5B0B04C01695079509
S1131660F794E7948A95D2F7F701E65FFD4F8081FE
S1131670281B310941095109C9011F910F91FF909C
S1131680EF900895DF92EF92FF920F931F93FC0166
S1131690E480F58006811781D1808081823048F40E
S11316A080E090E0A0E1B0E0E82AF92A0A2B1B2BA5
S11316B0A5C0843009F49FC0823021F4EE24FF24B5
S11316C0870105C0E114F1040105110519F4E0E0F6
S11316D0F0E096C0628173819FEF623879070CF065
S11316E05BC022E83FEF261B370B2A3131052CF073
S11316F020E030E040E050E02AC0B801A701022E0B
S113170004C076956795579547950A94D2F781E07A
S113171090E0A0E0B0E004C0880F991FAA1FBB1F8F
S11317202A95D2F70197A109B1098E219F21A023FF
S1131730B1230097A105B10521F081E090E0A0E07C
S1131740B0E09A01AB01282B392B4A2B5B2BDA0131
S1131750C9018F779070A070B07080349105A10595
S1131760B10539F427FF09C0205C3F4F4F4F5F4F4D
S113177004C0215C3F4F4F4F5F4FE0E0F0E020306A
S1131780A0E03A07A0E04A07A0E45A0710F0E1E01D
S1131790F0E079018A0127C06038710564F5FB0126
S11317A0E158FF4FD801C7018F779070A070B070D7
S11317B080349105A105B10539F4E7FE0DC080E43C
S11317C090E0A0E0B0E004C08FE390E0A0E0B0E0DF
S11317D0E80EF91E0A1F1B1F17FF05C01695079573
S11317E0F794E794319687E016950795F794E79474
S11317F08A95D1F705C0EE24FF248701EFEFF0E0CE
S11318006E2F679566276795902F9F77D794DD2471
S1131810D7948E2F8695492F462B582F5D29B701D3
S1131820CA011F910F91FF90EF90DF900895FC0182
S1131830DB01408151812281622F6F7770E0221F8A
S11318402227221F9381892F880F822B282F30E093
S1131850991F9927991F11969C931197211531056A
S1131860A9F5411551056105710511F482E037C0F0
S113187082E89FEF13969C938E9312979A01AB0183
S113188067E0220F331F441F551F6A95D1F783E089
S11318908C930DC0220F331F441F551F12968D9138
S11318A09C911397019713969C938E9312972030D3
S11318B080E0380780E0480780E4580758F314961E
S11318C02D933D934D935C93179708952F3F3105C6
S11318D079F4411551056105710519F484E08C937F
S11318E0089564FF03C081E08C9312C01C9210C061
S11318F02F57304013963C932E93129783E08C938A
S113190087E0440F551F661F771F8A95D1F77064CF
S113191014964D935D936D937C93179708951F933D
S1131920DC01FB019C91923008F447C08081823035
S113193008F443C0943051F411961C91843099F505
S11319408181682F70E0611B71093FC0843021F0F0
S1131950923031F48230B9F18181882389F12DC02C
S113196011961C9111978230F1F081811817D9F4E6
S113197012962D913C91139782819381821793073C
S113198094F028173907BCF014968D919D910D9011
S1131990BC91A02D248135814681578128173907B0
S11319A04A075B0718F4112341F00AC08217930712
S11319B0A407B50740F4112319F061E070E005C0F5
S11319C06FEF7FEF02C060E070E0CB011F910895DC
S11319D060E071EE80E090E00E94020680E090E01A
S11319E061E070E00E9486020E948900019741F440
S11319F083E090E06EE170E04FEF5FE00E9404024C
S1131A0080E090E008952F923F924F925F926F9200
S1131A107F928F929F92AF92BF92CF92DF92EF927A
S1131A20FF920F931F93CF93DF93CDB7DEB7CA1BFB
S1131A30DB0B0FB6F894DEBF0FBECDBF19942A8816
S1131A40398848885F846E847D848C849B84AA84CE
S1131A50B984C884DF80EE80FD800C811B81AA815B
S1131A60B981CE0FD11D0FB6F894DEBF0FBECDBF26
S1131A70ED0108950F931F93CF93DF938C01EB0136
S1131A80009731F46115710519F420E030E038C095
S1131A9081E090E06EE070E00E94860DFC019C0104
S1131AA0009771F180E88383209771F0D387C28710
S1131AB081E8838380918A0590918B05892B21F499
S1131AC0F0938B05E0938A0501151105C9F0118780
S1131AD0008783818260838380918C0590918D053A
S1131AE0892B71F4F0938D05E0938C0580918E051C
S1131AF090918F05892B21F4F0938F05E0938E0547
S1131B00C901DF91CF911F910F9108950F931F93F6
S1131B10CF93DF93689F8001699F100D789F100D0C
S1131B201124C8010E94A20DEC01009729F060E085
S1131B3070E0A8010E94A70ECE01DF91CF911F9102
S1131B400F910895CF93DF93BC018230910510F477
S1131B5062E070E0A0919205B0919305ED01E0E0A0
S1131B60F0E040E050E021C0888199818617970712
S1131B7069F48A819B81309719F09383828304C02E
S1131B809093930580939205FE0134C068177907FA
S1131B9038F44115510519F08417950708F4AC0180
S1131BA0FE018A819B819C01E9012097E9F6411598
S1131BB05105A9F1CA01861B970B049708F4BA01D1
S1131BC0E0E0F0E02AC08D919C911197841795076D
S1131BD0F9F46417750781F412968D919C9113970B
S1131BE0309719F09383828304C090939305809374
S1131BF09205FD0132964FC0CA01861B970BFD0169
S1131C00E80FF91F6193719302978D939C9343C0DE
S1131C10FD01828193819C01D9011097A1F68091E5
S1131C20900590919105892B41F480910C0390913A
S1131C300D03909391058093900540910E0350916C
S1131C400F034115510541F44DB75EB780910A0366
S1131C5090910B03481B590B2091900530919105ED
S1131C6024173507B0F4CA01821B930B8617970714
S1131C7080F0AB014E5F5F4F8417950750F0420F21
S1131C80531F5093910540939005F901619371930B
S1131C9002C0E0E0F0E0CF01DF91CF910895CF934F
S1131CA0DF93009709F450C0EC0122971B821A823B
S1131CB0A0919205B0919305109709F140E050E08E
S1131CC0AC17BD0708F1BB83AA83FE0121913191B2
S1131CD0E20FF31FAE17BF0779F48D919C91119712
S1131CE0280F391F2E5F3F4F3983288312968D9119
S1131CF09C9113979B838A834115510571F4D0936A
S1131D009305C093920520C012968D919C911397D0
S1131D10AD01009711F0DC01D3CFFA01D383C28364
S1131D2021913191E20FF31FCE17DF0769F4888107
S1131D309981280F391F2E5F3F4FFA013183208389
S1131D408A819B8193838283DF91CF910895DC0103
S1131D5001C06D9341505040E0F70895F894FFCFCF
S1131D600100000000000000000000010202030363
S1131D70030304040404040404040505050505051B
S1131D8005050505050505050505060606060606F9
S1131D9006060606060606060606060606060606DF
S1131DA006060606060606060606070707070707C9
S1131DB007070707070707070707070707070707AF
S1131DC0070707070707070707070707070707079F
S1131DD0070707070707070707070707070707078F
S1131DE00707070707070707070708080808080879
S1131DF0080808080808080808080808080808085F
S1131E00080808080808080808080808080808084E
S1131E10080808080808080808080808080808083E
S1131E20080808080808080808080808080808082E
S1131E30080808080808080808080808080808081E
S1131E40080808080808080808080808080808080E
S1131E5008080808080808080808080808080808FE
S1131E600808080808080808080820009405000065
S9030000FC
