:100000000C9466000C9487000C9487000C94870075
:100010000C9487000C9487000C9487000C94870044
:100020000C9487000C9487000C9487000C94870034
:100030000C9487000C9487000C9487000C94870024
:100040000C9487000C9487000C9487000C94870014
:100050000C9487000C9487000C9487000C94870004
:100060000C9487000C9487000C9487000C948700F4
:100070000C9487000C9487000C9487000C948700E4
:100080000C9487000C9487000C9487000C948700D4
:100090000C9465010C9487000C9487000C948700E5
:1000A0000C9487000C9487000C9487000C948700B4
:1000B0000C9487000C9487000C9487000C948700A4
:1000C0000C9487000C9487000C94870011241FBEA9
:1000D000CFEFD1E2DEBFCDBF00E00CBF13E0A0E068
:1000E000B2E0E8EDF8E100E00BBF02C007900D922E
:1000F000AC32B107D9F713E0ACE2B3E001C01D9216
:10010000AA3BB107E1F70E9483070C946A0C0C9498
:100110000000AC0120E030E00CC08091C80085FFF9
:10012000FCCFFA01E20FF31F80818093CE002F5F96
:100130003F4F261737078CF30895DC019091AC03ED
:100140008091AD03981711F480E008959091AC036D
:100150008091AD03981719F420E030E017C090911A
:10016000AC038091AD03981738F48091AD03909162
:10017000AC03282F30E008C08091AD039091AC0310
:10018000282F30E020583F4F291B3109A901621761
:1001900073070CF4AB0120E030E020C09091AC0379
:1001A0008091AD03981711F49FEF12C0E091AC035A
:1001B000F0E0E45DFC4F90818091AC038F3719F43F
:1001C0001092AC0305C08091AC038F5F8093AC03A9
:1001D000FD01E20FF31F90832F5F3F4F2417350778
:1001E000ECF2842F08959091AC038091AD039817A1
:1001F00019F420E030E017C09091AC038091AD037A
:10020000981738F48091AD039091AC03282F30E01B
:1002100008C08091AD039091AC03282F30E02058A6
:100220003F4F291B3109C9010895482F9091AC0314
:100230008091AD039817D1F09091AC038091AD03FC
:10024000981738F48091AD039091AC03282F30E0DB
:1002500008C08091AD039091AC03282F30E0205866
:100260003F4F291B31092F37310591F0E091AD0344
:10027000F0E0E45DFC4F40838091AD038F3719F4CB
:100280001092AD0308958091AD038F5F8093AD030D
:1002900008959091AC038091AD03981711F4EFEF9E
:1002A00012C0E091AC03F0E0E45DFC4FE08180918E
:1002B000AC038F3719F41092AC0305C08091AC03E6
:1002C0008F5F8093AC038E2F08951F920F920FB60D
:1002D0000F920BB60F9211242F933F934F935F937E
:1002E0006F937F938F939F93AF93BF93EF93FF93FE
:1002F0008091CE000E941501FF91EF91BF91AF91C7
:100300009F918F917F916F915F914F913F912F912D
:100310000F900BBE0F900FBE0F901F901895DF939C
:10032000CF930F920F92CDB7DEB7982F8A3099F402
:100330008DE089839A83FE0131969E012D5F3F4FA8
:100340008091C80085FFFCCF81918093CE00E21799
:10035000F307B1F706C08091C80085FFFCCF9093EA
:10036000CE0080E090E00F900F90CF91DF91089544
:100370009091AC038091AD039817D1F39091AC03A9
:100380008091AD03981738F48091AD039091AC0340
:10039000282F30E008C08091AD039091AC03282F46
:1003A00030E020583F4F291B3109232B09F390914E
:1003B000AC038091AD03981711F4EFEF15C0E091F5
:1003C000AC03F0E0E45DFC4FE0818091AC038F373B
:1003D00019F41092AC0305C08091AC038F5F809339
:1003E000AC03ED3009F4EAE08E2F90E008950E940E
:1003F000DC049B01AC0160E074E284EF99E40E94AC
:1004000000040E942A026150704022E42093C80038
:1004100028E92093C90026E02093CA002FEF2093FB
:10042000CE001092AC031092AD03272F332727FD87
:100430003A952093CD006093CC007298739A8FE820
:1004400091E068EB71E00E9409089093AF038093FC
:10045000AE030895EF92FF920F931F937B018C01DF
:1004600020E030E040E05FE40E94AC0488238CF0A0
:10047000C801B70120E030E040E05FE40E94A20341
:100480000E943A059B01AC0120503040404050484A
:1004900006C0C801B7010E943A059B01AC01B90131
:1004A000CA011F910F91FF90EF900895A0E0B0E076
:1004B000ECE5F2E00C94D207DC012B01FA019C91EF
:1004C000923008F439C1EB018881823008F433C1DD
:1004D000943069F4843009F02FC111969C911197E2
:1004E0008981981709F428C1AEE1B2E025C18430B2
:1004F00009F421C18230A9F4923009F01DC19A019A
:10050000AD0188E0EA010990AE01E90109929E017E
:100510008150C1F7E201898111969C9189238183E1
:1005200008C1923009F407C112962D903C901397A0
:10053000EB018A819B811496AD90BD90CD90DC90AB
:100540001797EC80FD800E811F819101281B390BCC
:10055000B90137FF04C066277727621B730B60322F
:1005600071050CF061C0121613066CF537014801D5
:10057000062E04C096948794779467940A94D2F7D1
:1005800021E030E040E050E004C0220F331F441F60
:10059000551F6A95D2F721503040404050402E21DF
:1005A0003F2140235123211531054105510521F0FB
:1005B00021E030E040E050E079018A01E628F728A8
:1005C000082919293CC0232BD1F1260E371E3501ED
:1005D0004601062E04C096948794779467940A94F3
:1005E000D2F721E030E040E050E004C0220F331F9A
:1005F000441F551F6A95D2F721503040404050406B
:100600002A213B214C215D21211531054105510550
:1006100021F021E030E040E050E059016A01A628D5
:10062000B728C828D9280BC0821593052CF01C01C7
:10063000AA24BB24650103C0EE24FF248701119680
:100640009C91D20111968C91981709F445C0992379
:1006500039F0A80197012A193B094C095D0906C028
:10066000A60195012E193F09400B510B57FD08C0FB
:1006700011823382228224833583468357831DC0AF
:1006800081E081833382228288279927DC01821BC3
:10069000930BA40BB50B84839583A683B7830DC0FE
:1006A000220F331F441F551F2483358346835783EE
:1006B000828193810197938382832481358146814E
:1006C0005781DA01C9010197A109B1098F5F9F4FD5
:1006D000AF4FBF4328F30BC0918333822282EA0CD1
:1006E000FB1C0C1D1D1DE482F5820683178383E02D
:1006F0008083248135814681578157FF1AC0C90103
:10070000AA2797FDA095BA2F81709070A070B07045
:100710005695479537952795822B932BA42BB52B70
:1007200084839583A683B783828193810196938383
:100730008283DF0101C0D201CD01CDB7DEB7E2E196
:100740000C94EE07A0E2B0E0E8EAF3E00C94DE07D8
:1007500069837A838B839C832D833E834F83588761
:10076000E9E0EE2EF12CEC0EFD1ECE010196B70154
:100770000E94B2068E010F5E1F4FCE010596B80192
:100780000E94B2068A8991E089278A8BC701B80145
:10079000AE01475E5F4F0E9456020E94DD05A096A3
:1007A000E6E00C94FA07A0E2B0E0E9EDF3E00C9487
:1007B000DE0769837A838B839C832D833E834F83FB
:1007C0005887F9E0EF2EF12CEC0EFD1ECE010196BC
:1007D000B7010E94B2068E010F5E1F4FCE01059633
:1007E000B8010E94B206C701B801AE01475E5F4F73
:1007F0000E9456020E94DD05A096E6E00C94FA07DE
:10080000A8E1B0E0E6E0F4E00C94DA0769837A83CB
:100810008B839C832D833E834F835887B9E0EB2ED7
:10082000F12CEC0EFD1ECE010196B7010E94B2061E
:100830008E010F5E1F4FCE010596B8010E94B206D1
:100840002985223008F47EC03989323010F4B8018D
:100850007CC08A859A8989278A87243011F02230C2
:1008600031F4231709F06EC06EE172E06EC03430CF
:1008700039F41D861E861F86188A1C861B8604C0B6
:10088000323021F484E08987B7015FC02B853C8535
:100890008B899C89281B390B3C872B87ED84FE8430
:1008A0000F851889AD88BE88CF88D88CEA14FB04E0
:1008B0000C051D0540F4EE0CFF1C001F111F2150FC
:1008C00030403C872B8720E030E040E050E080E083
:1008D00090E0A0E0B0E460E070E0EA14FB040C05F6
:1008E0001D0540F0282B392B4A2B5B2BEA18FB08FF
:1008F0000C091D09B695A79597958795EE0CFF1CD9
:10090000001F111F6F5F7F4F6F31710531F7DA01E3
:10091000C9018F779070A070B07080349105A105E7
:10092000B10561F427FD0AC0E114F10401051105C8
:1009300029F0205C3F4F4F4F5F4F20782D873E8737
:100940004F87588BBE01675F7F4FCB010E94DD054B
:100950006896EAE00C94F607A8E1B0E0E2EBF4E078
:100960000C94DE0769837A838B839C832D833E837B
:100970004F83588789E0E82EF12CEC0EFD1ECE0146
:100980000196B7010E94B2068E010F5E1F4FCE0185
:100990000596B8010E94B2068985823040F08989A7
:1009A000823028F0C701B8010E942A0701C08FEFEA
:1009B0006896E6E00C94FA07A8E0B0E0E2EEF4E016
:1009C0000C94DB079B01AC0183E08983DA01C90148
:1009D0008827B7FD83959927AA27BB27B82E21150D
:1009E00031054105510519F482E089833AC0882315
:1009F000A9F0203080E0380780E0480780E85807F9
:100A000029F460E070E080E09FEC30C0EE24FF2429
:100A10008701E21AF30A040B150B02C079018A015F
:100A20008EE1C82ED12CDC82CB82ED82FE820F8338
:100A30001887C801B7010E948E050197181619067C
:100A400084F4082E04C0EE0CFF1C001F111F0A9432
:100A5000D2F7ED82FE820F831887C81AD90ADC828A
:100A6000CB82BA82CE0101960E94DD052896E9E08C
:100A70000C94F707ACE0B0E0E0E4F5E00C94E2079A
:100A800069837A838B839C83CE010196BE016B5F61
:100A90007F4F0E94B2068D81823061F1823050F129
:100AA000843021F48E81882351F12EC02F81388526
:100AB00037FD20C06E812F3131051CF06623F9F01F
:100AC00023C08EE190E0821B930B29853A854B85EC
:100AD0005C8504C056954795379527958A95D2F73A
:100AE0006623B1F050954095309521953F4F4F4F7B
:100AF0005F4F0EC020E030E040E050E009C02FEF33
:100B00003FEF4FEF5FE704C020E030E040E050E807
:100B1000B901CA012C96E2E00C94FE07EF92FF9215
:100B20000F931F937B018C0180E0E81680E0F806AC
:100B300081E0080780E0180788F48FEFE816F104D9
:100B40000105110531F028F088E090E0A0E0B0E068
:100B500017C080E090E0A0E0B0E012C080E0E816AE
:100B600080E0F80680E0080781E0180728F088E1B7
:100B700090E0A0E0B0E004C080E190E0A0E0B0E050
:100B800020E230E040E050E0281B390B4A0B5B0BC1
:100B900004C016950795F794E7948A95D2F7F70164
:100BA000EA5DFD4F8081281B310941095109C901C6
:100BB0001F910F91FF90EF900895DF92EF92FF92B7
:100BC0000F931F93FC01E480F58006811781D1808B
:100BD0008081823048F480E090E0A0E1B0E0E82A33
:100BE000F92A0A2B1B2BA5C0843009F49FC0823040
:100BF00021F4EE24FF24870105C0E114F10401056E
:100C0000110519F4E0E0F0E096C0628173819FEF76
:100C1000623879070CF05BC022E83FEF261B370BE8
:100C20002A3131052CF020E030E040E050E02AC0CD
:100C3000B801A701022E04C0769567955795479590
:100C40000A94D2F781E090E0A0E0B0E004C0880F01
:100C5000991FAA1FBB1F2A95D2F70197A109B109B5
:100C60008E219F21A023B1230097A105B10521F07A
:100C700081E090E0A0E0B0E09A01AB01282B392B95
:100C80004A2B5B2BDA01C9018F779070A070B0708E
:100C900080349105A105B10539F427FF09C0205C16
:100CA0003F4F4F4F5F4F04C0215C3F4F4F4F5F4F4F
:100CB000E0E0F0E02030A0E03A07A0E04A07A0E43E
:100CC0005A0710F0E1E0F0E079018A0127C06038AE
:100CD000710564F5FB01E158FF4FD801C7018F771B
:100CE0009070A070B07080349105A105B10539F401
:100CF000E7FE0DC080E490E0A0E0B0E004C08FE328
:100D000090E0A0E0B0E0E80EF91E0A1F1B1F17FFDD
:100D100005C016950795F794E794319687E01695E8
:100D20000795F794E7948A95D1F705C0EE24FF2440
:100D30008701EFEFF0E06E2F679566276795902F9C
:100D40009F77D794DD24D7948E2F8695492F462BF5
:100D5000582F5D29B701CA011F910F91FF90EF90A5
:100D6000DF900895FC01DB01408151812281622FD7
:100D70006F7770E0221F2227221F9381892F880F0F
:100D8000822B282F30E0991F9927991F11969C9349
:100D9000119721153105A9F5411551056105710519
:100DA00011F482E037C082E89FEF13969C938E93F4
:100DB00012979A01AB0167E0220F331F441F551FA2
:100DC0006A95D1F783E08C930DC0220F331F441F27
:100DD000551F12968D919C911397019713969C9392
:100DE0008E931297203080E0380780E0480780E437
:100DF000580758F314962D933D934D935C93179792
:100E000008952F3F310579F44115510561057105AC
:100E100019F484E08C93089564FF03C081E08C93FF
:100E200012C01C9210C02F57304013963C932E9343
:100E3000129783E08C9387E0440F551F661F771F3E
:100E40008A95D1F7706414964D935D936D937C935E
:100E5000179708951F93DC01FB019C91923008F4D1
:100E600047C08081823008F443C0943051F4119619
:100E70001C91843099F58181682F70E0611B7109A4
:100E80003FC0843021F0923031F48230B9F1818159
:100E9000882389F12DC011961C9111978230F1F0B1
:100EA00081811817D9F412962D913C911397828164
:100EB00093818217930794F028173907BCF0149692
:100EC0008D919D910D90BC91A02D248135814681FD
:100ED0005781281739074A075B0718F4112341F097
:100EE0000AC082179307A407B50740F4112319F02D
:100EF00061E070E005C06FEF7FEF02C060E070E07E
:100F0000CB011F910895EF92FF920F931F93CF9300
:100F1000DF938CEF81B982B960E071EE80E090E000
:100F20000E94F701789486E880937A0081E08093AC
:100F30007C0080E092E00E94670890E4E92E8CEF4C
:100F4000F82E09E112E0C0E9D1E017988E2D8A95BC
:100F5000F1F780917A00806180937A0080917A0025
:100F6000806480937A0080917A0084FFFCCFF2B88D
:100F7000809178009091790000D00F92EDB7FEB784
:100F800012830183948383830E94550884EF91E048
:100F90000F900F900F900F90FE013197F1F701978E
:100FA000D9F7D3CF2F923F924F925F926F927F9259
:100FB0008F929F92AF92BF92CF92DF92EF92FF9269
:100FC0000F931F93CF93DF93CDB7DEB7CA1BDB0B15
:100FD0000FB6F894DEBF0FBECDBF19942A883988AA
:100FE00048885F846E847D848C849B84AA84B984C1
:100FF000C884DF80EE80FD800C811B81AA81B981CD
:10100000CE0FD11D0FB6F894DEBF0FBECDBFED01E0
:1010100008950F931F93CF93DF938C01EB010097FB
:1010200031F46115710519F420E030E038C081E039
:1010300090E06EE070E00E94A20AFC019C01009723
:1010400071F180E88383209771F0D387C28781E8AC
:1010500083838091B0039091B103892B21F4F093A5
:10106000B103E093B00301151105C9F011870087A2
:101070008381826083838091B2039091B303892B33
:1010800071F4F093B303E093B2038091B4039091B1
:10109000B503892B21F4F093B503E093B403C901A0
:1010A000DF91CF911F910F910895DF93CF93CDB72B
:1010B000DEB7FE013696619171918091B2039091F5
:1010C000B303AF010E949C08CF91DF9108950F9365
:1010D0001F93CF93DF938C01E091B203F091B303A0
:1010E000838181FF21C0C0E0D0E00DC0E091B20358
:1010F000F091B30320853185BF01F9011995892B42
:1011000011F0CFEFDFEFF80181918F01882371F7A4
:10111000E091B203F091B303208531858AE0BF01ED
:10112000F9011995892B11F0CFEFDFEFCE01DF9197
:10113000CF911F910F9108952F923F924F925F92FE
:101140006F927F928F929F92AF92BF92CF92DF92D7
:10115000EF92FF920F931F93DF93CF93CDB7DEB73C
:101160002B970FB6F894DEBF0FBECDBF3C012B010D
:101170005A01FC0117821682838181FD03C06FEF43
:101180007FEFC6C19AE0892E1E010894211C311CF4
:10119000F3012381F20123FD859123FF81912F012A
:1011A000882309F4B2C1853239F423FD859123FFE8
:1011B00081912F01853229F490E0B3010E94E00B68
:1011C000E7CF982FFF24EE249924FFE1FF15D0F0FC
:1011D0009B3269F09C3228F4903259F0933291F4AA
:1011E0000EC09D3249F0903369F441E024C052E0D2
:1011F000F52A84E0F82A28C098E0F92A25C0E0E121
:10120000FE2A22C0F7FC29C0892F80538A3070F44F
:10121000F6FE05C0989C902C1124980E15C0E89CF1
:10122000E02C1124E80EF0E2FF2A0EC09E3229F4D1
:10123000F6FC6BC140E4F42A07C09C3619F450E870
:10124000F52A02C0983649F4F20123FD959123FF57
:1012500091912F01992309F0B8CF892F85548330BC
:1012600018F08052833038F444E050E0A40EB51EEC
:101270005FE359830FC0933631F0933779F093359C
:1012800009F056C020C0F5018081898342E050E01A
:10129000A40EB51E610101E010E012C0F501C0808E
:1012A000D180F6FC03C06FEF7FEF02C0692D70E0C4
:1012B00042E050E0A40EB51EC6010E94D50B8C0181
:1012C0005FE7F52214C0F501C080D180F6FC03C0B1
:1012D0006FEF7FEF02C0692D70E042E050E0A40E96
:1012E000B51EC6010E94C30B8C0150E8F52AF3FE1F
:1012F00007C01AC080E290E0B3010E94E00BEA94BC
:101300008E2D90E008171907A8F30EC0F601F7FC20
:101310008591F7FE81916F0190E0B3010E94E00B8F
:10132000E110EA94015010400115110579F7EAC067
:10133000943611F0993669F5F7FE08C0F501208161
:1013400031814281538184E090E00AC0F5018081BF
:1013500091819C01442737FD4095542F82E090E015
:10136000A80EB91E9FE6F92257FF09C05095409577
:10137000309521953F4F4F4F5F4FE0E8FE2ACA015D
:10138000B901A1012AE030E00E940C0CD82ED2183D
:1013900040C0953729F41F2D1F7E2AE030E01DC084
:1013A0001F2D197F9F3661F0903720F4983509F092
:1013B000ACC00FC0903739F0983709F0A6C004C010
:1013C00028E030E00AC0106114FD146020E130E034
:1013D00004C014FD166020E132E017FF08C0F501DB
:1013E000608171818281938144E050E008C0F50101
:1013F00080819181BC0180E090E042E050E0A40E49
:10140000B51EA1010E940C0CD82ED2188FE7F82E21
:10141000F122F6FE0BC05EEFF522D91438F4F4FE8B
:1014200007C0F2FC05C08FEEF82202C01D2D01C0DE
:10143000192DF4FE0DC0FE01ED0DF11D80818033EC
:1014400019F499EEF92208C01F5FF2FE05C003C02F
:101450008F2D867809F01F5F0F2DF3FC14C0F0FE6E
:101460000FC01E1510F09D2C0BC09D2C9E0C911AC8
:101470001E2D06C080E290E0B3010E94E00B1F5FCA
:101480001E15C0F304C01E1510F4E11A01C0EE24AD
:1014900004FF0FC080E390E0B3010E94E00B02FF65
:1014A0001DC001FD03C088E790E00EC088E590E014
:1014B0000BC0802F867891F001FF02C08BE201C043
:1014C00080E2F7FC8DE290E0B3010E94E00B06C0E1
:1014D00080E390E0B3010E94E00B9A94D914C0F32A
:1014E000DA94F101ED0DF11D808190E0B3010E94CD
:1014F000E00BDD20A9F706C080E290E0B3010E9476
:10150000E00BEA94EE20C1F743CEF30166817781C8
:10151000CB012B960FB6F894DEBF0FBECDBFCF9197
:10152000DF911F910F91FF90EF90DF90CF90BF90D0
:10153000AF909F908F907F906F905F904F903F9073
:101540002F9008950F931F93CF93DF93689F80018F
:10155000699F100D789F100D1124C8010E94BE0ACA
:10156000EC01009729F060E070E0A8010E94CE0B2A
:10157000CE01DF91CF911F910F910895CF93DF930B
:10158000BC018230910510F462E070E0A091B803D4
:10159000B091B903ED01E0E0F0E040E050E021C09F
:1015A000888199818617970769F48A819B81309792
:1015B00019F09383828304C09093B9038093B80396
:1015C000FE0134C06817790738F44115510519F048
:1015D0008417950708F4AC01FE018A819B819C0168
:1015E000E9012097E9F641155105A9F1CA01861BC9
:1015F000970B049708F4BA01E0E0F0E02AC08D915F
:101600009C91119784179507F9F46417750781F475
:1016100012968D919C911397309719F09383828342
:1016200004C09093B9038093B803FD0132964FC074
:10163000CA01861B970BFD01E80FF91F6193719397
:1016400002978D939C9343C0FD01828193819C01FD
:10165000D9011097A1F68091B6039091B703892B19
:1016600041F480912803909129039093B7038093CC
:10167000B60340912A0350912B034115510541F4C3
:101680004DB75EB78091260390912703481B590BF5
:101690002091B6033091B70324173507B0F4CA017F
:1016A000821B930B8617970780F0AB014E5F5F4F4D
:1016B0008417950750F0420F531F5093B703409380
:1016C000B603F9016193719302C0E0E0F0E0CF014D
:1016D000DF91CF910895CF93DF93009709F450C025
:1016E000EC0122971B821A82A091B803B091B90332
:1016F000109709F140E050E0AC17BD0708F1BB833B
:10170000AA83FE0121913191E20FF31FAE17BF07AB
:1017100079F48D919C911197280F391F2E5F3F4FBF
:101720003983288312968D919C9113979B838A838A
:101730004115510571F4D093B903C093B80320C08B
:1017400012968D919C911397AD01009711F0DC01D9
:10175000D3CFFA01D383C28321913191E20FF31FDA
:10176000CE17DF0769F488819981280F391F2E5F12
:101770003F4FFA01318320838A819B819383828347
:10178000DF91CF910895FC010590615070400110E8
:10179000D8F7809590958E0F9F1F0895DC0101C0AA
:1017A0006D9341505040E0F70895FC016150704046
:1017B00001900110D8F7809590958E0F9F1F089586
:1017C0000F931F93CF93DF938C01EB018B8181FFEC
:1017D0001BC082FF0DC02E813F818C819D81281707
:1017E000390764F4E881F9810193F983E88306C03D
:1017F000E885F985802F1995892B31F48E819F8199
:1018000001969F838E8302C00FEF1FEFC801DF9107
:10181000CF911F910F910895FA01AA27283051F115
:10182000203181F1E8946F936E7F6E5F7F4F8F4F11
:101830009F4FAF4FB1E03ED0B4E03CD0670F781F70
:10184000891F9A1FA11D680F791F8A1F911DA11D55
:101850006A0F711D811D911DA11D20D009F468948E
:101860003F912AE0269F11243019305D3193DEF636
:10187000CF010895462F4770405D4193B3E00FD0EC
:10188000C9F7F6CF462F4F70405D4A3318F0495DD7
:1018900031FD4052419302D0A9F7EACFB4E0A695BA
:1018A0009795879577956795BA95C9F700976105DC
:1018B000710508959B01AC010A2E06945795479532
:1018C00037952795BA95C9F7620F731F841F951F27
:0818D000A01D0895F894FFCF5C
:1018D8000A0A4952206578616D706C6520666F72DE
:1018E80020434D2D3730300A0025640D0A000000D2
:1018F80000000000000000010202030303030404C7
:101908000404040404040505050505050505050585
:101918000505050505050606060606060606060665
:10192800060606060606060606060606060606064F
:101938000606060606060707070707070707070735
:10194800070707070707070707070707070707071F
:10195800070707070707070707070707070707070F
:1019680007070707070707070707070707070707FF
:1019780007070707070708080808080808080808E5
:1019880008080808080808080808080808080808CF
:1019980008080808080808080808080808080808BF
:1019A80008080808080808080808080808080808AF
:1019B800080808080808080808080808080808089F
:1019C800080808080808080808080808080808088F
:1019D800080808080808080808080808080808087F
:1019E800080808080808080808080808080808086F
:0C19F8000808080808082000BA030000D6
:00000001FF
