:1000000065C0000082C0000080C000007EC000000B
:100010007CC000007AC0000078C0000076C00000FC
:1000200074C0000072C0000070C000006EC000000C
:100030006CC000006AC0000068C0000066C000001C
:1000400064C0000062C0000060C000005EC000002C
:100050005CC000005AC0000058C0000056C000003C
:1000600054C000000FC4000050C000004EC000008B
:100070004CC000004AC0000048C0000046C000005C
:1000800044C0000042C0000040C000003EC000006C
:100090003CC000003AC0000038C0000036C000007C
:1000A00034C0000032C0000030C000002EC000008C
:1000B0002CC000002AC0000028C0000026C000009C
:1000C00024C0000022C0000020C0000011241FBE78
:1000D000CFEFD1E2DEBFCDBF00E00CBF12E0A0E069
:1000E000B2E0E0EEFCE000E00BBF02C007900D9232
:1000F000A230B107D9F723E0A2E0B2E001C01D921F
:10010000A83FB207E1F7E7D3E9C57ACF80910002B3
:10011000909101020895809304020895809306024D
:100120000895FC01EE5FFD4F6583089580930502FD
:10013000089520E030E09091A602982311F021E08C
:1001400030E0C90108958091A50290E00895FC0176
:10015000EE55FD4F858190E00895362F20E0280F61
:10016000391FC9010895282F30E0C9010895807012
:10017000892F90E008950F931F93CF93DF93809181
:10018000EA029091EB02892B09F4B8C08091040235
:100190008E3F09F4A9C08091000290910102892B41
:1001A00029F41092E90286E08093E8028091E90246
:1001B00090E06091E80270E0681B790B8E559D4FCE
:1001C00036D39091E902980F9093E9028091E8026A
:1001D000981718F442D2019771F07091E902472FF5
:1001E00050E0DA0111978A010250104060E0ED0101
:1001F000CE55DD4F18C08091E902882309F071C007
:1002000086E090E073C0F901EE55FD4F80818F3F8D
:1002100019F481818F3F61F02017310719F488812B
:100220008F3F31F06F5F262F30E02A173B075CF3DA
:100230006623A1F090E0421B530B08C0EE55FD4F22
:10024000DF01A20FB31F8C9180839F5FE92FF0E045
:10025000E417F5079CF3761B7093E9022091E902FD
:100260008091E802281728F1909104028091A4025D
:100270009817B9F56091A5026C5F6093E8022617A4
:1002800088F4822F90E070E0681B790B8E559D4FAB
:10029000CED29091E902980F9093E9028091E80202
:1002A000981738F08091A502A82FB0E020E090E0E8
:1002B0000CC085E090E090930102809300021EC084
:1002C000EE55FD4F8281980F2F5FE22FF0E0AE17C1
:1002D000BF07B4F7AE55BD4F909513968C91891713
:1002E00019F087E090E002C081E090E09093010275
:1002F000809300021092EB021092EA02DF91CF91FC
:100300001F910F9108951F938091EA029091EB0243
:10031000019709F45DC081E090E09093EB02809337
:10032000EA0280910502893940F490910602892FF2
:100330008150863028F0933819F084E090E02FC087
:100340008FEF809302028093030280910502A82F11
:10035000B0E020E090E005C0EE5FFD4F8281980F95
:100360002F5FE22FF0E0AE17BF07B4F7AE5FBD4FCF
:10037000909513969C9380910002909101020697AC
:10038000029708F430D1109105021C5F82E092E0E0
:10039000612F70E02DD1181759F082E090E0909312
:1003A0000102809300021092EB021092EA0210C048
:1003B00080910602823029F48091080290E006962E
:1003C00002C086E090E038D1109201021092000243
:1003D0001F91089598DF8091000290910102892B6E
:1003E00039F4C9DE80910002909101020597C9F3AA
:1003F0000895282F8091EA029091EB02892B91F4C5
:100400002093040283E08093060260930702CA01EE
:100410004093080280709093090285E08093050262
:10042000D9CF0895FFCF282F8091EA029091EB0257
:10043000892BB1F42093040282E08093060260933A
:1004400007028093080284E080930502C3DF3091A5
:10045000A80220E08091A702280F311DC90108954C
:10046000FFCF282F8091EA029091EB02892B71F443
:100470002093040283E08093060260930702409376
:10048000080284E080930502A5CF0895FFCF282FAE
:100490008091EA029091EB02892B91F4209304025F
:1004A00082E0809306026093070281E08093080255
:1004B00084E0809305028EDF8091A70290E008958A
:1004C000FFCF282F8091EA029091EB02892B51F403
:1004D0002093040281E08093060282E0809305026B
:1004E00079CF0895FFCF7EC008950F931F938C019D
:1004F0006F5F7F4F882777FD8095982FD2D29B0121
:10050000AC0160E074E284EF99E435D2AB01BC0148
:10051000C80115D0892B19F420E030E00CC081E02F
:1005200090E090930102809300021092EB021092EF
:10053000EA0221E030E0C9011F910F910895EF9286
:10054000FF920F931F937A018B0182E48093C00086
:1005500088E98093C10086E08093C20060E074E285
:1005600084EF99E4A801970106D26DD261507040E2
:100570007093C5006093C40060E074E284E799E47E
:10058000A8019701F8D120E030E040E451E43DD3E8
:100590006093F0037093F1038093F2039093F3035D
:1005A0002091F0033091F1034091F2035091F30355
:1005B00060E070E08AE793E4DED145D27093EF0308
:1005C0006093EE037298739A8FEF8093C600109237
:1005D000EC031092ED0381E090E01F910F91FF90EA
:1005E000EF90089508958091ED038093EC030895B2
:1005F000AC01F8947398729A20E030E011C08091B9
:10060000C00085FFFCCF8091C00080648093C00053
:10061000FA01E20FF31F80818093C6002F5F3F4FE6
:100620002617370764F38091C00086FFFCCF7298CD
:10063000739A7894C90108951092F7031092F60303
:100640002091EE033091EF03265F3F4F280F391FB3
:100650003093F5032093F4030895AF92BF92CF92A5
:10066000DF92EF92FF920F931F938091F603909188
:10067000F70301969093F7038093F6032091F60316
:100680003091F7038091F4039091F503821793075B
:1006900018F421E030E069C0A090F003B090F103BD
:1006A000C090F203D090F303C601B5012BEA3AEAF9
:1006B0004AEA50E4AAD27B018C0120E030E040E815
:1006C0005FE355D1882314F461E04BC0C801B70142
:1006D00020E030E04FE753E494D218160CF03EC00F
:1006E000C601B50120E030E04AE754E444D15B01A3
:1006F0006C0120E030E04AE755E487D27B018C01B1
:1007000020E030E040E85FE332D188231CF461E070
:1007100070E020C0C801B70120E03FEF4FE757E489
:1007200070D21816A4F4C601B50120E030E040E212
:1007300051E46BD288D180E991E005C0FC0131978A
:10074000F1F76150704061157105C1F70CC0C80127
:10075000B70179D1CB010197F1F705C0C801B70105
:1007600072D16A95F1F720E030E0C9011F910F9135
:10077000FF90EF90DF90CF90BF90AF900895909151
:10078000EC038091ED03981719F420E030E017C0D6
:100790009091EC038091ED03981738F48091ED036C
:1007A0009091EC03282F30E008C08091ED039091E8
:1007B000EC03282F30E020503F4F291B3109C9019D
:1007C00008951F93182FDBDF8F3F910591F0E09183
:1007D000ED03F0E0E451FD4F10838091ED038F3F76
:1007E00019F41092ED0305C08091ED038F5F8093A3
:1007F000ED031F9108959091EC038091ED039817FC
:1008000011F4EFEF12C0E091EC03F0E0E451FD4F82
:10081000E0818091EC038F3F19F41092EC0305C046
:100820008091EC038F5F8093EC038E2F0895EF92FD
:10083000FF920F931F93CF93DF937C01EB01909175
:10084000EC038091ED03981719F400E010E012C05A
:1008500096DF8C01C817D9070CF48E01C0E0D0E0F8
:1008600006C0C9DFF701EC0FFD1F80832196C0177A
:10087000D107BCF3C801DF91CF911F910F91FF9079
:10088000EF9008951F920F920FB60F920BB60F9232
:1008900011242F933F934F935F936F937F938F9385
:1008A0009F93AF93BF93EF93FF938091C60089DF2F
:1008B000FF91EF91BF91AF919F918F917F916F9138
:1008C0005F914F913F912F910F900BBE0F900FBEF4
:1008D0000F901F901895CFEFD3E040E050E066E016
:1008E00070E081E090E085DD40E050E068E070E09D
:1008F00081E090E07EDD40E050E066E070E082E084
:1009000090E077DD40E050E068E070E082E090E069
:1009100070DD40E050E066E070E083E090E069DD8B
:1009200040E050E068E070E083E090E062DD40E0AD
:1009300054E060E270E081E090E05BDD6CED7FE927
:100940008FE29FEBC5D18C9FA0018D9F500D9C9F86
:10095000500D112460E270E082E090E04ADD4FEF3C
:1009600057E060E270E083E090E043DDB6CFD4D0A2
:1009700008F481E008950CD00AC102D140F0F9D00A
:1009800030F021F45F3F19F0EBC0511134C1EEC0DB
:100990000FD198F39923C9F35523B1F3951B550B48
:1009A000BB27AA2762177307840738F09F5F5F4F42
:1009B000220F331F441FAA1FA9F333D00E2E3AF083
:1009C000E0E830D091505040E695001CCAF729D09D
:1009D000FE2F27D0660F771F881FBB1F26173707EC
:1009E0004807AB07B0E809F0BB0B802DBF01FF271C
:1009F00093585F4F2AF09E3F510568F0B1C0FBC08D
:100A00005F3FECF3983EDCF3869577956795B79555
:100A1000F7959F5FC9F7880F911D9695879597F970
:100A20000895E1E0660F771F881FBB1F62177307E9
:100A30008407BA0720F0621B730B840BBA0BEE1FFE
:100A400088F7E0950895BCD088F09F5790F0B92FB3
:100A50009927B751A0F0D1F0660F771F881F991F13
:100A60001AF0BA95C9F712C0B13081F0C3D0B1E025
:100A70000895C0C0672F782F8827B85F39F0B93F35
:100A8000CCF3869577956795B395D9F73EF4909515
:100A90008095709561957F4F8F4F9F4F0895E89493
:100AA00009C097FB3EF490958095709561957F4FB6
:100AB0008F4F9F4F9923A9F0F92F96E9BB27939564
:100AC000F695879577956795B795F111F8CFFAF474
:100AD000BB0F11F460FF1BC06F5F7F4F8F4F9F4FA5
:100AE00016C0882311F096E911C0772321F09EE803
:100AF000872F762F05C0662371F096E8862F70E069
:100B000060E02AF09A95660F771F881FDAF7880F42
:100B10009695879597F90895990F0008550FAA0B98
:100B2000E0E8FEEF16161706E807F907C0F0121600
:100B30001306E407F50798F0621B730B840B950B03
:100B400039F40A2661F0232B242B252B21F4089558
:100B50000A2609F4A140A6958FEF811D811D0895F5
:100B600097F99F6780E870E060E008959FEF80EC60
:100B7000089500240A941616170618060906089503
:100B800000240A9412161306140605060895092E69
:100B90000394000C11F4882352F0BB0F40F4BF2BD8
:100BA00011F460FF04C06F5F7F4F8F4F9F4F089518
:100BB00057FD9058440F551F59F05F3F71F047950E
:100BC000880F97FB991F61F09F3F79F087950895F3
:100BD000121613061406551FF2CF4695F1DF08C012
:100BE000161617061806991FF1CF8695710561052F
:100BF00008940895E894BB2766277727CB0197F9D7
:100C000008958ADF08F48FEF08950BD0C0CFB1DFCD
:100C100028F0B6DF18F0952309F0A2CFA7CF112452
:100C2000EACFC6DFA0F3959FD1F3950F50E0551F93
:100C3000629FF001729FBB27F00DB11D639FAA2731
:100C4000F00DB11DAA1F649F6627B00DA11D661F80
:100C5000829F2227B00DA11D621F739FB00DA11DA1
:100C6000621F839FA00D611D221F749F3327A00D5B
:100C7000611D231F849F600D211D822F762F6A2FF7
:100C800011249F5750408AF0E1F088234AF0EE0F7C
:100C9000FF1FBB1F661F771F881F91505040A9F789
:100CA0009E3F510570F05CCFA6CF5F3FECF3983EBE
:100CB000DCF3869577956795B795F795E7959F5FF0
:100CC000C1F7FE2B880F911D9695879597F908958A
:100CD00097FF03C09195819591090895F894FFCFEE
:020CE000010011
:00000001FF
